{
  "contractName": "Election",
  "abi": [
    {
      "anonymous": false,
      "inputs": [
        {
          "indexed": true,
          "internalType": "address",
          "name": "owner",
          "type": "address"
        },
        {
          "indexed": true,
          "internalType": "uint256",
          "name": "id",
          "type": "uint256"
        },
        {
          "indexed": false,
          "internalType": "string",
          "name": "name",
          "type": "string"
        }
      ],
      "name": "Register",
      "type": "event"
    },
    {
      "anonymous": false,
      "inputs": [
        {
          "indexed": true,
          "internalType": "address",
          "name": "owner",
          "type": "address"
        },
        {
          "indexed": true,
          "internalType": "uint256",
          "name": "id",
          "type": "uint256"
        }
      ],
      "name": "Vote",
      "type": "event"
    },
    {
      "constant": true,
      "inputs": [],
      "name": "candidateCount",
      "outputs": [
        {
          "internalType": "uint256",
          "name": "",
          "type": "uint256"
        }
      ],
      "payable": false,
      "stateMutability": "view",
      "type": "function"
    },
    {
      "constant": true,
      "inputs": [
        {
          "internalType": "uint256",
          "name": "",
          "type": "uint256"
        }
      ],
      "name": "candidates",
      "outputs": [
        {
          "internalType": "address",
          "name": "owner",
          "type": "address"
        },
        {
          "internalType": "uint256",
          "name": "id",
          "type": "uint256"
        },
        {
          "internalType": "string",
          "name": "name",
          "type": "string"
        },
        {
          "internalType": "uint256",
          "name": "numVotes",
          "type": "uint256"
        }
      ],
      "payable": false,
      "stateMutability": "view",
      "type": "function"
    },
    {
      "constant": true,
      "inputs": [],
      "name": "voteCount",
      "outputs": [
        {
          "internalType": "uint256",
          "name": "",
          "type": "uint256"
        }
      ],
      "payable": false,
      "stateMutability": "view",
      "type": "function"
    },
    {
      "constant": false,
      "inputs": [
        {
          "internalType": "uint256",
          "name": "_id",
          "type": "uint256"
        }
      ],
      "name": "vote",
      "outputs": [],
      "payable": false,
      "stateMutability": "nonpayable",
      "type": "function"
    },
    {
      "constant": false,
      "inputs": [
        {
          "internalType": "string",
          "name": "_name",
          "type": "string"
        }
      ],
      "name": "register",
      "outputs": [],
      "payable": false,
      "stateMutability": "nonpayable",
      "type": "function"
    },
    {
      "constant": true,
      "inputs": [
        {
          "internalType": "uint256",
          "name": "_cidx",
          "type": "uint256"
        }
      ],
      "name": "getCandidate",
      "outputs": [
        {
          "internalType": "address",
          "name": "addy",
          "type": "address"
        },
        {
          "internalType": "uint256",
          "name": "id",
          "type": "uint256"
        },
        {
          "internalType": "string",
          "name": "name",
          "type": "string"
        },
        {
          "internalType": "uint256",
          "name": "numVotes",
          "type": "uint256"
        }
      ],
      "payable": false,
      "stateMutability": "view",
      "type": "function"
    },
    {
      "constant": true,
      "inputs": [
        {
          "internalType": "address",
          "name": "_voter",
          "type": "address"
        }
      ],
      "name": "hasVoted",
      "outputs": [
        {
          "internalType": "bool",
          "name": "",
          "type": "bool"
        }
      ],
      "payable": false,
      "stateMutability": "view",
      "type": "function"
    }
  ],
  "bytecode": "0x608060405234801561001057600080fd5b50610ccf806100206000396000f3fe608060405234801561001057600080fd5b506004361061007d5760003560e01c806335b8e8201161005b57806335b8e820146101f4578063a9a981a3146102dc578063c6384071146102fa578063f2c298be146103185761007d565b80630121b93f1461008257806309eef43e146100b05780633477ee2e1461010c575b600080fd5b6100ae6004803603602081101561009857600080fd5b81019080803590602001909291905050506103d3565b005b6100f2600480360360208110156100c657600080fd5b81019080803573ffffffffffffffffffffffffffffffffffffffff16906020019092919050505061068d565b604051808215151515815260200191505060405180910390f35b6101386004803603602081101561012257600080fd5b81019080803590602001909291905050506106eb565b604051808573ffffffffffffffffffffffffffffffffffffffff1673ffffffffffffffffffffffffffffffffffffffff16815260200184815260200180602001838152602001828103825284818151815260200191508051906020019080838360005b838110156101b657808201518184015260208101905061019b565b50505050905090810190601f1680156101e35780820380516001836020036101000a031916815260200191505b509550505050505060405180910390f35b6102206004803603602081101561020a57600080fd5b81019080803590602001909291905050506107d3565b604051808573ffffffffffffffffffffffffffffffffffffffff1673ffffffffffffffffffffffffffffffffffffffff16815260200184815260200180602001838152602001828103825284818151815260200191508051906020019080838360005b8381101561029e578082015181840152602081019050610283565b50505050905090810190601f1680156102cb5780820380516001836020036101000a031916815260200191505b509550505050505060405180910390f35b6102e46108ce565b6040518082815260200191505060405180910390f35b6103026108d4565b6040518082815260200191505060405180910390f35b6103d16004803603602081101561032e57600080fd5b810190808035906020019064010000000081111561034b57600080fd5b82018360208201111561035d57600080fd5b8035906020019184600183028401116401000000008311171561037f57600080fd5b91908080601f016020809104026020016040519081016040528093929190818152602001838380828437600081840152601f19601f8201169050808301925050505050505091929192905050506108da565b005b80600154101561044b576040517f08c379a000000000000000000000000000000000000000000000000000000000815260040180806020018281038252601b8152602001807f63616e646964617465206973206e6f742072656769737465726564000000000081525060200191505060405180910390fd5b60008114156104c2576040517f08c379a00000000000000000000000000000000000000000000000000000000081526004018080602001828103825260148152602001807f63616e646964617465206964206973207a65726f00000000000000000000000081525060200191505060405180910390fd5b60001515600360003373ffffffffffffffffffffffffffffffffffffffff1673ffffffffffffffffffffffffffffffffffffffff16815260200190815260200160002060010160009054906101000a900460ff1615151461058b576040517f08c379a00000000000000000000000000000000000000000000000000000000081526004018080602001828103825260168152602001807f596f75206861766520616c726561647920766f7465640000000000000000000081525060200191505060405180910390fd5b600460008154809291906001019190505550604051806040016040528082815260200160011515815250600360003373ffffffffffffffffffffffffffffffffffffffff1673ffffffffffffffffffffffffffffffffffffffff1681526020019081526020016000206000820151816000015560208201518160010160006101000a81548160ff02191690831515021790555090505060008082815260200190815260200160002060030160008154809291906001019190505550803373ffffffffffffffffffffffffffffffffffffffff167ff668ead05c744b9178e571d2edb452e72baf6529c8d72160e64e59b50d865bd060405160405180910390a350565b600080600360008473ffffffffffffffffffffffffffffffffffffffff1673ffffffffffffffffffffffffffffffffffffffff16815260200190815260200160002090508060010160009054906101000a900460ff16915050919050565b60006020528060005260406000206000915090508060000160009054906101000a900473ffffffffffffffffffffffffffffffffffffffff1690806001015490806002018054600181600116156101000203166002900480601f0160208091040260200160405190810160405280929190818152602001828054600181600116156101000203166002900480156107c35780601f10610798576101008083540402835291602001916107c3565b820191906000526020600020905b8154815290600101906020018083116107a657829003601f168201915b5050505050908060030154905084565b600080606060008060008087815260200190815260200160002090508060000160009054906101000a900473ffffffffffffffffffffffffffffffffffffffff168160010154826002018360030154818054600181600116156101000203166002900480601f0160208091040260200160405190810160405280929190818152602001828054600181600116156101000203166002900480156108b75780601f1061088c576101008083540402835291602001916108b7565b820191906000526020600020905b81548152906001019060200180831161089a57829003601f168201915b505050505091509450945094509450509193509193565b60015481565b60045481565b6000600260003373ffffffffffffffffffffffffffffffffffffffff1673ffffffffffffffffffffffffffffffffffffffff168152602001908152602001600020541461098f576040517f08c379a000000000000000000000000000000000000000000000000000000000815260040180806020018281038252601a8152602001807f596f752061726520616c7265616479207265676973746572656400000000000081525060200191505060405180910390fd5b604051806020016040528060008152508051906020012081805190602001201415610a22576040517f08c379a000000000000000000000000000000000000000000000000000000000815260040180806020018281038252600c8152602001807f496e76616c6964206e616d65000000000000000000000000000000000000000081525060200191505060405180910390fd5b6001805401600181905550600154600260003373ffffffffffffffffffffffffffffffffffffffff1673ffffffffffffffffffffffffffffffffffffffff1681526020019081526020016000208190555060405180608001604052803373ffffffffffffffffffffffffffffffffffffffff16815260200160015481526020018281526020016000815250600080600154815260200190815260200160002060008201518160000160006101000a81548173ffffffffffffffffffffffffffffffffffffffff021916908373ffffffffffffffffffffffffffffffffffffffff160217905550602082015181600101556040820151816002019080519060200190610b2e929190610bf5565b50606082015181600301559050506001543373ffffffffffffffffffffffffffffffffffffffff167ffd7cce4ad4056ce11f491575da172369a8731f4cd81ef1eedb704c7e304f19cc836040518080602001828103825283818151815260200191508051906020019080838360005b83811015610bb8578082015181840152602081019050610b9d565b50505050905090810190601f168015610be55780820380516001836020036101000a031916815260200191505b509250505060405180910390a350565b828054600181600116156101000203166002900490600052602060002090601f016020900481019282601f10610c3657805160ff1916838001178555610c64565b82800160010185558215610c64579182015b82811115610c63578251825591602001919060010190610c48565b5b509050610c719190610c75565b5090565b610c9791905b80821115610c93576000816000905550600101610c7b565b5090565b9056fea265627a7a72315820f1992ad881233db7e98c9909f81d8786e9c20954d08e14d31f41bae868459d6b64736f6c63430005100032",
  "source": "// SPDX-License-Identifier: GPL-3.0\npragma solidity >=0.4.22 <0.8.0;\n\ncontract Election {\n    event Vote(address indexed owner, uint indexed id);\n    event Register(address indexed owner, uint indexed id, string name);\n\n    struct Candidate {\n        address owner;\n        uint id; \n        string name;\n        uint numVotes; \n    }\n\n    struct Ballot {\n        uint id;\n        bool voted;\n    }\n\n    mapping(uint => Candidate) public candidates; \n    uint public candidateCount;\n    \n    mapping (address => uint) addressToId;\n    \n    mapping(address => Ballot) votes;\n    uint public voteCount; \n    \n    function vote(uint _id) public {\n        require(\n            candidateCount >= _id, \n            \"candidate is not registered\"\n        ); \n\n        require(\n            _id != 0, \n            \"candidate id is zero\"\n        ); \n            \n        require(\n            votes[msg.sender].voted == false,\n            \"You have already voted\"\n        ); \n            \n        voteCount++; \n        votes[msg.sender] = Ballot({\n            id: _id,\n            voted: true\n        });\n        candidates[_id].numVotes++; \n\n        emit Vote(msg.sender, _id);\n    }\n    \n    function register(string memory _name) public {\n    \n        require(\n            addressToId[msg.sender] == 0,\n            \"You are already registered\"\n            ); \n            \n        require(\n            keccak256(bytes(_name)) != keccak256(bytes(\"\")),\n            \"Invalid name\"\n            );\n        \n        candidateCount = candidateCount + 1;\n        addressToId[msg.sender] = candidateCount; \n        \n        candidates[candidateCount] = Candidate({\n            owner: msg.sender,\n            id: candidateCount,\n            name: _name, \n            numVotes: 0\n        }); \n\n        emit Register(msg.sender, candidateCount, _name);\n    }\n\n    function getCandidate (uint _cidx) public view\n        returns (address addy, uint id, string memory name, uint numVotes)\n    {\n        //assert there are enough candidates to return\n        Candidate storage candidate = candidates[_cidx];\n\n        return (\n            candidate.owner,\n            candidate.id, \n            candidate.name, \n            candidate.numVotes\n        );\n    }\n\n    function hasVoted(address _voter) public view returns (bool) {\n        Ballot storage ballot = votes[_voter]; \n\n        return ballot.voted;\n    }\n    \n}",
  "sourcePath": "/Users/kylescott/Documents/Personal/first_dapp/solidity_election/contracts/Election.sol",
  "compiler": {
    "name": "solc",
    "version": "0.5.16+commit.9c3226ce.Emscripten.clang"
  },
  "schemaVersion": "3.2.4",
  "updatedAt": "2021-03-09T23:43:08.623Z",
  "networkType": "ethereum",
  "devdoc": {
    "methods": {}
  },
  "userdoc": {
    "methods": {}
  }
}